S00B00005450342E7372656341
S11300000C94D5000C94F2000C94F2000C94F200C1
S11300100C94F2000C94F2000C94F2000C94F20094
S11300200C94F2000C9402030C94F2000C94F20071
S11300300C94F2000C94F2000C94F2000C94F20074
S11300400C94F2000C94F2000C94F2000C94F20064
S11300500C94F2000C9407010C94F2000C94F2003E
S11300600C94F2000C94F2006E616E00696E6600EE
S113007000407A10F35A00A0724E18090010A5D45B
S1130080E80000E87648170000E40B54020000CAB8
S11300909A3B000000E1F5050000809698000000FE
S11300A040420F000000A08601000000102700005D
S11300B00000E803000000006400000000000A00E3
S11300C0000000000100000000002C76D888DC67E6
S11300D04F0823DFC1DFAE59E1B1B796E5E3E4533E
S11300E0C63AE651997696E8E6C28426EB898C9B5B
S11300F062ED407C6FFCEFBC9C9F40F2BAA56FA5FB
S1130100F490055A2AF75C936B6CF9676DC11BFC7C
S1130110E0E40D47FEF520E6B500D0ED902E030097
S1130120943577050080841E080000204E0A0000E4
S113013000C80C333333330F986E12831141EF8DA3
S11301402114893BE65516CFFEE6DB18D1844B38E3
S11301501BF77C1D901DA4BBE424203284725E2214
S11301608100C9F124ECA1E53D27001F0000000037
S11301701F00001F101010101F00001F181818185F
S11301801F00001F1C1C1C1C1F00001F1E1E1E1E07
S11301901F00001F1F1F1F1F1F0003070F1F0F0734
S11301A00300181C1E1F1E1C180011241FBECFEFB5
S11301B0D8E0DEBFCDBF11E0A0E0B1E0E8E1F4E1BA
S11301C002C005900D92AE30B107D9F721E0AEE040
S11301D0B1E001C01D92A431B207E1F70E94BF0251
S11301E00C940A0A0C94000010927C00EAE7F0E0F8
S11301F080818E6A80830895EAE7F0E080818064DC
S11302008083089580910E0190910F0108951F92AB
S11302100F920FB60F9211248F939F9380917800C1
S11302209091790090930F0180930E019F918F918B
S11302300F900FBE0F901F901895982F907F9BB929
S1130240589A5A9A2DE02A95F1F700005A9858982E
S11302509DE09A95F1F7000020E1829FC0011124EE
S11302608BB9589A5A9A8DE08A95F1F700005A98FA
S113027058989DE09A95F1F700000895982F907F83
S11302809BB95A9AE9EFF0E03197F1F700C000000A
S11302905A98E9EFF0E03197F1F700C00000F0E17F
S11302A08F9FC00111248BB95A9A89EF90E001976E
S11302B0F1F700C000005A98E9EFF0E03197F1F748
S11302C000C00000089581E00E943E0108950F934C
S11302D01F93CF93DF93009781F0662371F0EC01B5
S11302E06150062F10E00F5F1F4F080F191F8991EF
S11302F00E941D01C017D107D1F7DF91CF911F9143
S11303000F910895623031F0633031F0613029F497
S1130310805C03C08C5E01C08C5A80680E943E01E0
S11303200895FF920F931F93CF93DF93660F660F89
S1130330660F6064EC016894FF24F3F8F60EFE0186
S1130340049111E0160F862F0E943E01802F0E9417
S11303501D012196612F1F11F2CFDF91CF911F91C3
S11303600F91FF9008951F93CF93DF9385EA9EE04A
S11303700197F1F700C000001BB81BB88AB1806F69
S11303808AB98AB187608AB980E38BB95A9AE9EF4E
S1130390F0E03197F1F700C000005A98E9EFF0E07F
S11303A03197F1F700C000008BB95A9A89EF90E0B9
S11303B00197F1F700C000005A98E9EFF0E0319797
S11303C0F1F700C0000080E28BB95A9A89EF90E0FF
S11303D00197F1F700C000005A98E9EFF0E0319777
S11303E0F1F700C0000088E20E943E018CE00E9408
S11303F03E01CAE6D1E060E011E0160FCE010E9492
S113040091012896612F1830B9F7DF91CF911F9190
S113041008950F931F93CF93DF93CDB7DEB72D9736
S11304200FB6F894DEBF0FBECDBF0E940201BC011F
S113043080E090E00E94470323E23BED49EF5EE356
S11304400E94AD0320E030E040E251E40E94AD039D
S11304500E941A040E941803709311016093100102
S11304602091100130911101ADECBCEC0E940C08FC
S11304708C01169507951695079516950795409145
S11304801001509111019A010E940C0896958795CC
S113049096958795969587959C01220F331F880F13
S11304A0991F880F991F880F991F820F931F481B4C
S11304B0590B55275F934F93C80199279F938F93A7
S11304C080E091E09F938F931F928DE08F93CE01F4
S11304D001969F938F930E947C090E94630160E0C0
S11304E080E00E9482010FB6F894DEBF0FBECDBF3C
S11304F00A3030F46BE0CE0101960E94670105C01A
S11305006CE0CE0101960E9467012D960FB6F89417
S1130510DEBF0FBECDBFDF91CF911F910F91089524
S11305200E940201BC0180E090E00E94470323E2A4
S11305303BED49EF5EE30E94AD0320E030E040E292
S113054051E40E94AD030E941A040E9418037093A0
S11305501101609310018091100190911101813F6C
S1130560910510F0289A089580911001909111013D
S11305708A3A910510F4299A089515B8089581E0EE
S113058080937E0083E084B90E94F4000E94B3014A
S11305900E94630160E080E00E9482010E94E40204
S11305A00E94FC0078940E94F602823021F40E949A
S11305B009020E94FC020E94F9028130A1F70E9404
S11305C090020E94FF02EFCFE6EBF0E080818062B0
S11305D080831092B000E1EBF0E08081836080833F
S11305E0E0E7F0E0808181608083089580911201CA
S11305F008958091130108951092120108951092A4
S1130600130108951F920F920FB60F9211248F9326
S1130610809113018F5F80931301809112018F5F8A
S1130620809312018F910F900FBE0F901F90189519
S11306300E948C0388F09F5798F0B92F9927B751DF
S1130640B0F0E1F0660F771F881F991F1AF0BA9572
S1130650C9F714C0B13091F00E94A603B1E0089527
S11306600C94A603672F782F8827B85F39F0B93F19
S1130670CCF3869577956795B395D9F73EF4909525
S11306808095709561957F4F8F4F9F4F0895E894A3
S113069009C097FB3EF490958095709561957F4FC6
S11306A08F4F9F4F9923A9F0F92F96E9BB27939574
S11306B0F695879577956795B795F111F8CFFAF484
S11306C0BB0F11F460FF1BC06F5F7F4F8F4F9F4FB5
S11306D016C0882311F096E911C0772321F09EE813
S11306E0872F762F05C0662371F096E8862F70E079
S11306F060E02AF09A95660F771F881FDAF7880F53
S11307009695879597F9089557FD9058440F551F6E
S113071059F05F3F71F04795880F97FB991F61F07F
S11307209F3F79F087950895121613061406551FF6
S1130730F2CF4695F1DF08C0161617061806991F62
S1130740F1CF86957105610508940895E894BB2757
S113075066277727CB0197F908950E94C0030C946C
S11307607E040E94700438F00E94770420F09523E0
S113077011F00C943E040C946D0411240C94A70302
S11307800E94840370F3959FC1F3950F50E0551FA9
S1130790629FF001729FBB27F00DB11D639FAA27D2
S11307A0F00DB11DAA1F649F6627B00DA11D661F21
S11307B0829F2227B00DA11D621F739FB00DA11D42
S11307C0621F839FA00D611D221F749F3327A00DFC
S11307D0611D231F849F600D211D822F762F6A2F98
S11307E011249F5750409AF0F1F088234AF0EE0FFD
S11307F0FF1FBB1F661F771F881F91505040A9F72A
S11308009E3F510580F00C943E040C94A7035F3F77
S1130810E4F3983ED4F3869577956795B795F79565
S1130820E7959F5FC1F7FE2B880F911D96958795DD
S113083097F908950E948C03E8F09E37E8F0963902
S1130840B8F49E3848F4672F782F8827985FF9CF3B
S113085086957795679593959539D0F3B62FB170B2
S11308606B0F711D811D20F487957795679593957E
S11308700C9444040C945F040C94A70397F99F67A9
S113088080E870E060E00895882371F4772321F014
S11308909850872B762F07C0662311F499270DC033
S11308A09051862B70E060E02AF09A95660F771FCE
S11308B0881FDAF7880F9695879597F908959F3FD3
S11308C031F0915020F4879577956795B795880F07
S11308D0911D9695879597F908959FEF80EC08955B
S11308E000240A941616170618060906089500240B
S11308F00A9412161306140605060895092E039485
S1130900000C11F4882352F0BB0F40F4BF2B11F4F8
S113091060FF04C06F5F7F4F8F4F9F4F0895A0E12A
S1130920B0E0E5E9F4E00C941B087C011B016A01CA
S1130930FC0117821682838181FF44C39E012F5FCD
S11309403F4F3901F7019381F10193FD859193FFA5
S113095081911F01882309F431C3853239F493FD51
S1130960859193FF81911F01853239F4B70190E09D
S11309700E94400956016501E5CF10E0512C912CED
S1130980FFE1F915D8F08B3279F038F4803279F040
S11309908332A1F4F92DF0612EC08D3261F08033E1
S11309A069F4292D21602DC0392D3260932E892DB3
S11309B08460982E2AC0E92DE86015C097FC2DC0EC
S11309C020ED280F2A3088F496FE06C03AE0139FE3
S11309D0200D1124122F19C08AE0589E200D1124D5
S11309E0522EE92DE0629E2E10C08E3231F496FC18
S11309F0E5C2F92DF0649F2E08C08C3621F4292D10
S1130A002068922E02C0883641F4F10193FD85914D
S1130A1093FF81911F018111B3CF9BEB980F93300A
S1130A2020F4992D9061805E07C09BE9980F933064
S1130A3008F066C1992D9F7E96FF16E09F73992E4C
S1130A40853619F49064992E08C0863621F4392F1E
S1130A503068932E02C01111115097FE07C01C3349
S1130A6050F444244394410E27E00BC0183038F06E
S1130A7027E017E005C027E09CE3492E02C0212FA0
S1130A80412C560184E0A80EB11CF60160817181ED
S1130A9082819381042DA3010E9452086C01F98183
S1130AA0FC87F0FF02C0F3FF06C091FC06C092FE73
S1130AB006C000E205C00DE203C00BE201C000E085
S1130AC08C858C7019F001115AC29BC297FE10C01C
S1130AD04C0CFC85F4FF04C08A81813309F44A94E8
S1130AE0141474F528E0241578F588E0482E2CC0F9
S1130AF096FC2AC0812F90E08C159D059CF03CEF5C
S1130B00C3163FEFD30674F0892D8068982E0AC06F
S1130B10E2E0F0E0EC0FFD1FE10FF11D8081803376
S1130B2019F411501111F4CF97FE0EC044244394CC
S1130B30410E812F90E0C816D9062CF41C1904C06C
S1130B404424439401C010E097FE06C01C141D0405
S1130B5034F4C601019605C085E090E002C081E04E
S1130B6090E001110196112331F0212F30E02F5F25
S1130B703F4F820F931F252D30E08217930714F403
S1130B80581A01C0512C892D897049F4552039F027
S1130B90B70180E290E00E9440095A94F7CF002305
S1130BA029F0B701802F90E00E94400993FC09C00E
S1130BB0552039F0B70180E390E00E9440095A942F
S1130BC0F7CF97FE4CC04601D7FE02C0812C912C72
S1130BD0C60188199909F301E80FF91FFE87ED870B
S1130BE0960124193109388B2F87012F10E01195B4
S1130BF0019511093FEF8316930629F4B7018EE29C
S1130C0090E00E944009C814D9044CF08F8598895B
S1130C108815990524F4ED85FE85818101C080E362
S1130C20F1E08F1A91082D853E852F5F3F4F3E8757
S1130C302D87801691062CF0B70190E00E944009A0
S1130C40D9CFC814D90441F49A81963320F495334A
S1130C5019F43C8534FF81E3B70190E04EC08A81EA
S1130C60813319F09C859F7E9C87B70190E00E9498
S1130C704009111105C094FC18C085E690E017C026
S1130C80B7018EE290E00E9440091E5F82E001E01D
S1130C90080FF301E80FF11D8081B70190E00E9475
S1130CA04009802F0113F3CFE6CF85E490E0B7012C
S1130CB00E944009D7FC06C0C114D10441F4EC855C
S1130CC0E4FF05C0D194C194D1088DE201C08BE248
S1130CD0B70190E00E94400980E32AE0C216D104E3
S1130CE02CF08F5FFAE0CF1AD108F7CFB70190E06C
S1130CF00E944009B701C601C0960E94400954C130
S1130D00833631F0833779F0833509F056C020C03B
S1130D10560132E0A30EB11CF6018081898301E003
S1130D2010E0630112C05601F2E0AF0EB11CF601EF
S1130D30C080D18096FE03C0612F70E002C06FEFC7
S1130D407FEFC6010E9435098C01F92DFF7714C08D
S1130D50560122E0A20EB11CF601C080D18096FE9D
S1130D6003C0612F70E002C06FEF7FEFC6010E94E5
S1130D702A098C01F92DF0689F2EF3FD1AC0852DE8
S1130D8090E008171907A8F4B70180E290E00E94E8
S1130D9040095A94F4CFF60197FC859197FE81910E
S1130DA06F01B70190E00E94400951105A9401501C
S1130DB011090115110579F7F7C0843611F0893648
S1130DC061F5560197FE09C024E0A20EB11CF6019C
S1130DD060817181828193810AC0F2E0AF0EB11CFF
S1130DE0F60160817181072E000C880B990BF92D97
S1130DF0FF769F2E97FF09C0909580957095619519
S1130E007F4F8F4F9F4FF0689F2E2AE030E0A30161
S1130E100E94AC09C82EC6183FC0092D853721F49D
S1130E200F7E2AE030E01DC0097F8F3691F018F460
S1130E30883559F0C3C0803719F0883711F0BEC027
S1130E40006104FF09C0046007C094FE08C0066086
S1130E5006C028E030E005C020E130E002C020E117
S1130E6032E0560107FF09C084E0A80EB11CF60168
S1130E70608171818281938108C0F2E0AF0EB11C60
S1130E80F6016081718180E090E0A3010E94AC09C9
S1130E90C82EC6180F77902E96FE0BC0092D0E7F14
S1130EA0C11650F494FE0AC092FC08C0092D0E7EAF
S1130EB005C0DC2C092D03C0DC2C01C0D12E04FF9D
S1130EC00DC0FE01EC0DF11D8081803311F4097E0B
S1130ED009C002FF06C0D394D39404C0802F86783F
S1130EE009F0D39403FD11C000FF06C01C2DD514D6
S1130EF080F4150D1D190DC0D51458F4B70180E206
S1130F0090E00E944009D394F7CFD51410F45D18F3
S1130F1001C0512C04FF10C0B70180E390E00E948F
S1130F20400902FF17C001FD03C088E790E002C03A
S1130F3088E590E0B7010CC0802F867859F001FF56
S1130F4002C08BE201C080E207FD8DE2B70190E0B0
S1130F500E944009C11638F4B70180E390E00E9472
S1130F6040091150F7CFCA94F301EC0DF11D8081B3
S1130F70B70190E00E944009C110F5CF15C0F4E01C
S1130F80F51560F584E0581A93FE1FC0011127C0BF
S1130F902C8523FF2AC008E610E0392D3071932EEA
S1130FA0F8018491811124C0552009F4E4CCB701DF
S1130FB080E290E00E9440095A94F6CFF7018681BE
S1130FC0978126C08FEF9FEF23C0B70180E290E0A6
S1130FD00E9440095A945110F8CFD8CF512CB70130
S1130FE0802F90E00E944009D3CF0CE610E0D5CFCB
S1130FF091108052B70190E00E9440090F5F1F4F8B
S1131000CFCF23E0251510F483E0BDCF512CC0CF02
S11310106096E2E10C943708A29FB001B39FC0012F
S1131020A39F700D811D1124911DB29F700D811D10
S11310301124911D08952F923F924F925F926F92C7
S11310407F928F929F92AF92BF92CF92DF92EF9254
S1131050FF920F931F93CF93DF93CDB7DEB7CA1BD5
S1131060DB0B0FB6F894DEBF0FBECDBF09942A8800
S1131070398848885F846E847D848C849B84AA84A8
S1131080B984C884DF80EE80FD800C811B81AA8135
S1131090B981CE0FD11D0FB6F894DEBF0FBECDBF00
S11310A0ED010895283008F027E03327DA01990F7D
S11310B0311D87FD916000966105710539F4326038
S11310C02E5F3D9330E32A95E1F708959F3F30F07A
S11310D080387105610509F03C5F3C5F3D939130B8
S11310E008F08068911DDF93CF931F930F93FF92B5
S11310F0EF92192F987F9695E92F96959695E90F7B
S1131100FF27E653FF4F99273327EE24FF24A70137
S1131110E70105900894079428F4360FE71EF81E9B
S1131120491F511D660F771F881F991F0694A1F749
S11311300590079428F4E70EF81E491F561FC11D99
S1131140770F881F991F661F0694A1F705900794CF
S113115028F4F80E491F561FC71FD11D880F991F69
S1131160661F771F0694A1F70590079420F4490F92
S1131170561FC71FD81F990F661F771F881F069415
S1131180A9F784911095177041F0D695C795579596
S11311904795F794E7941A95C1F7E0E7F0E068946F
S11311A01590159135916591959105907FE2739510
S11311B0E118F10A430B560BC90BD009C0F7E10C37
S11311C0F11E431F561FC91FD01D7EF4703311F446
S11311D08A95E6CFE894015030F0080F0AF400270E
S11311E0021708F4202F2395022F7A3328F079E38D
S11311F07D932A95E9F710C07D932A9589F6069484
S113120097956795379517951794E118F10A430B4D
S1131210560BC90BD00998F023957E9173957A33B8
S113122008F070E37C932013B8F77E9170617D938E
S113123030F0839571E37D9370E32A95E1F71124EF
S1131240EF90FF900F911F91CF91DF91992787FD28
S113125090950895FC010590615070400110D8F7F5
S1131260809590958E0F9F1F0895FC0161507040EA
S113127001900110D8F7809590958E0F9F1F0895C7
S11312800F931F93CF93DF93FB01238121FD03C0B1
S11312908FEF9FEF2CC022FF16C046815781248117
S11312A035814217530744F4A081B1819D012F5F1A
S11312B03F4F318320838C93268137812F5F3F4FAB
S11312C03783268314C08B01EC01FB010084F18574
S11312D0E02D0995892BE1F6D80116968D919C9104
S11312E01797019617969C938E931697CE01DF91CC
S11312F0CF911F910F910895AEE0B0E0E2E8F9E0DC
S11313000C9429080D891E898F89988D26E02C83D9
S11313101A83098397FF02C080E090E801979E83B7
S11313208D83AE01455E5F4F698D7A8DCE01019646
S11313300E948F044D815E8157FD0AC02F8138853C
S1131340421753070CF49A01F801E20FF31F1082BD
S11313502E96E4E00C944508FA01AA27283051F1AE
S1131360203181F1E8946F936E7F6E5F7F4F8F4FD2
S11313709F4FAF4FB1E03ED0B4E03CD0670F781F31
S1131380891F9A1FA11D680F791F8A1F911DA11D16
S11313906A0F711D811D911DA11D20D009F468944F
S11313A03F912AE0269F11243019305D3193DEF6F7
S11313B0CF010895462F4770405D4193B3E00FD0AD
S11313C0C9F7F6CF462F4F70405D4A3318F0495D98
S11313D031FD4052419302D0A9F7EACFB4E0A6957B
S11313E09795879577956795BA95C9F7009761059D
S11313F0710508959B01AC010A2E069457954795F3
S113140037952795BA95C9F7620F731F841F951FE7
S10B1410A01D0895F894FFCF1C
S111141854454D503A2025642C256420430091
S9030000FC
