:100000000C9454000C9466000C9466000C946600EA
:100010000C9466000C9466000C9466000C946600C8
:100020000C9466000C9425020C9466000C946600F7
:100030000C9466000C9466000C9466000C946600A8
:100040000C9466000C9466000C9466000C94660098
:100050000C9466000C947B000C9466000C94660073
:100060000C9466000C946600001F000000001F0046
:10007000001F101010101F00001F181818181F0064
:10008000001F1C1C1C1C1F00001F1E1E1E1E1F000C
:10009000001F1F1F1F1F1F0003070F1F0F07030055
:1000A000181C1E1F1E1C180011241FBECFEFD8E005
:1000B000DEBFCDBF21E0A0E0B1E001C01D92A430C1
:1000C000B207E1F70E94BF010C9472020C94000089
:1000D00010927C00EAE7F0E080818F6A80830895C7
:1000E000EAE7F0E0808180648083089580910001D8
:1000F0009091010108951F920F920FB60F92112453
:100100008F939F9380917800909179009093010153
:10011000809300019F918F910F900FBE0F901F90C1
:100120001895982F907F9BB9589A5A9A2DE02A9546
:10013000F1F700005A9858989DE09A95F1F7000061
:1001400020E1829FC00111248BB9589A5A9A8DE000
:100150008A95F1F700005A9858989DE09A95F1F722
:1001600000000895982F907F9BB95A9AE9EFF0E02C
:100170003197F1F700C000005A98E9EFF0E03197AD
:10018000F1F700C00000F0E18F9FC00111248BB98E
:100190005A9A89EF90E00197F1F700C000005A9851
:1001A000E9EFF0E03197F1F700C00000089581E039
:1001B0000E94B2000895623031F0633031F0613056
:1001C00029F4805C03C08C5E01C08C5A80680E9458
:1001D000B2000895FF920F931F93CF93DF93660FA2
:1001E000660F660F6064EC016894FF24F3F8F60E66
:1001F000FE01049111E0160F862F0E94B200802F9D
:100200000E9491002196612F1F11F2CFDF91CF91B3
:100210001F910F91FF9008951F93CF93DF9385EA6D
:100220009EE00197F1F700C000001BB81BB88AB12F
:10023000806F8AB98AB187608AB980E38BB95A9A8C
:10024000E9EFF0E03197F1F700C000005A98E9EFCC
:10025000F0E03197F1F700C000008BB95A9A89EFAE
:1002600090E00197F1F700C000005A98E9EFF0E044
:100270003197F1F700C0000080E28BB95A9A89EFFC
:1002800090E00197F1F700C000005A98E9EFF0E024
:100290003197F1F700C0000088E20E94B2008CE0C4
:1002A0000E94B200C8E6D0E060E011E0160FCE0177
:1002B0000E94EA002896612F1830B9F7DF91CF919C
:1002C0001F910895EF92FF920F931F93CF93DF93A7
:1002D00000D000D01F92CDB7DEB77B01FE01319672
:1002E00025E0DF011D922A95E9F7009759F0359630
:1002F0002AE030E0B9010E943B028293862F972FBB
:100300000097C1F7BFEFEB16FB0669F489818111F5
:100310001DC0FE01329600E010E00F5F1F4F81917B
:100320008823D9F30FC005E010E00E191F090AC099
:10033000F80181918F01805D0E9491000E151F05CB
:10034000B9F711C0053011051CF00DC000E010E038
:1003500081E090E08C0F9D1F080F191F7E0196E031
:10036000E90EF11CE5CF0F900F900F900F900F90BA
:10037000DF91CF911F910F91FF90EF900895CF9350
:10038000DF9300D0CDB7DEB781E080937E000E947E
:1003900068000E940C010E94D70060E080E00E948B
:1003A000DB000E9407020E9470008AE090E09A83BE
:1003B000898378940E941902823011F50E94760098
:1003C0009C01A4EFB1E00E944F02DC01CB01072E9B
:1003D0007AE0B695A795979587957A95D1F7702D80
:1003E0009A8389830E94D70060E080E00E94DB004E
:1003F00089819A816FEF7FEF0E9462010E941F0244
:100400000E941C028130B1F60E942202D3CFE6EB9B
:10041000F0E08081806280831092B000E1EBF0E038
:10042000808183608083E0E7F0E080818160808369
:10043000089580910201089580910301089510921A
:10044000020108951092030108951F920F920FB6B2
:100450000F9211248F93809103018F5F809303018A
:10046000809102018F5F809302018F910F900FBEE8
:100470000F901F90189597FB072E16F4009407D045
:1004800077FD09D00E945E0207FC05D03EF49095EE
:1004900081959F4F0895709561957F4F0895A29F14
:1004A000B001B39FC001A39F700D811D1124911D48
:1004B000B29F700D811D1124911D0895AA1BBB1BB5
:1004C00051E107C0AA1FBB1FA617B70710F0A61B54
:1004D000B70B881F991F5A95A9F780959095BC0175
:0804E000CD010895F894FFCF4F
:00000001FF
