S00B00005450342E7372656341
S11300000C9454000C9471000C9471000C947100C5
S11300100C9471000C9471000C9471000C94710098
S11300200C9471000C9439020C9471000C947100BE
S11300300C9471000C9471000C9471000C94710078
S11300400C9471000C9471000C9471000C94710068
S11300500C9471000C9486000C9471000C94710043
S11300600C9471000C947100001F000000001F002C
S1130070001F101010101F00001F181818181F0060
S1130080001F1C1C1C1C1F00001F1E1E1E1E1F0008
S1130090001F1F1F1F1F1F0003070F1F0F07030051
S11300A0181C1E1F1E1C180011241FBECFEFD8E001
S11300B0DEBFCDBF11E0A0E0B1E0E4E7FCE002C0A8
S11300C005900D92AE30B107D9F721E0AEE0B1E072
S11300D001C01D92A231B207E1F70E94FA010C940B
S11300E038060C94000010927C00EAE7F0E080816E
S11300F08F6A80830895EAE7F0E0808180648083DA
S1130100089580910E0190910F0108951F920F920E
S11301100FB60F9211248F939F9380917800909142
S1130120790090930F0180930E019F918F910F900E
S11301300FBE0F901F901895982F907F9BB9589AD7
S11301405A9A2DE02A95F1F700005A9858989DE0A4
S11301509A95F1F7000020E1829FC00111248BB928
S1130160589A5A9A8DE08A95F1F700005A9858984F
S11301709DE09A95F1F700000895982F907F9BB920
S11301805A9AE9EFF0E03197F1F700C000005A986D
S1130190E9EFF0E03197F1F700C00000F0E18F9F44
S11301A0C00111248BB95A9A89EF90E00197F1F7B5
S11301B000C000005A98E9EFF0E03197F1F700C071
S11301C00000089581E00E94BD0008950F931F93DD
S11301D0CF93DF93009781F0662371F0EC016150B7
S11301E0062F10E00F5F1F4F080F191F89910E94FF
S11301F09C00C017D107D1F7DF91CF911F910F91C8
S11302000895623031F0633031F0613029F4805C5C
S113021003C08C5E01C08C5A80680E94BD000895A2
S1130220FF920F931F93CF93DF93660F660F660FB2
S11302306064EC016894FF24F3F8F60EFE01049167
S113024011E0160F862F0E94BD00802F0E949C0093
S11302502196612F1F11F2CFDF91CF911F910F9142
S1130260FF9008951F93CF93DF9385EA9EE0019753
S1130270F1F700C000001BB81BB88AB1806F8AB9BF
S11302808AB187608AB980E38BB95A9AE9EFF0E0C2
S11302903197F1F700C000005A98E9EFF0E0319788
S11302A0F1F700C000008BB95A9A89EF90E00197EA
S11302B0F1F700C000005A98E9EFF0E03197F1F748
S11302C000C0000080E28BB95A9A89EF90E0019750
S11302D0F1F700C000005A98E9EFF0E03197F1F728
S11302E000C0000088E20E94BD008CE00E94BD00B6
S11302F0C8E6D0E060E011E0160FCE010E941001C4
S11303002896612F1830B9F7DF91CF911F91089586
S11303100F931F93CF93DF93CDB7DEB72C970FB610
S1130320F894DEBF0FBECDBF0E9481009C01A8E8F7
S1130330B3E10E943103052E5AE09695879577958F
S113034067955A95D1F7502D0E947E020E94E402CF
S11303500E944F027F936F9380E091E09F938F936D
S11303601F928CE08F938E010F5F1F4F1F930F938B
S11303700E9440030E94E20060E080E00E940101CC
S11303806CE0C8010E94E6000E9433020FB6F894A4
S1130390DEBF0FBECDBF2C960FB6F894DEBF0FBEE6
S11303A0CDBFDF91CF911F910F9108950E948100DD
S11303B09C01A0E5B3EC0E943103052E5AE096950A
S11303C08795779567955A95D1F7502D0E947E02AF
S11303D00E94E4020E944F026931710510F0289ACC
S11303E006C06131710510F4299A01C015B80E9444
S11303F03602089581E080937E0083E084B90E94F0
S113040073000E9432010E94E20060E080E00E94DA
S113041001010E941B020E947B0078940E942D021D
S1130420823011F40E9488010E9430028130B1F7B9
S11304300E94D601F3CFE6EBF0E0808180628083F6
S11304401092B000E1EBF0E0808183608083E0E70C
S1130450F0E0808181608083089580911001089587
S113046080911101089510921001089510921101C4
S113047008951F920F920FB60F9211248F938091BB
S113048011018F5F80931101809110018F5F809320
S113049010018F910F900FBE0F901F9018950E941E
S11304A0C30288F09F5798F0B92F9927B751B0F03D
S11304B0E1F0660F771F881F991F1AF0BA95C9F7E4
S11304C014C0B13091F00E94DD02B1E008950C94A3
S11304D0DD02672F782F8827B85F39F0B93FCCF356
S11304E0869577956795B395D9F73EF49095809561
S11304F0709561957F4F8F4F9F4F0895E89409C081
S113050097FB3EF490958095709561957F4F8F4F42
S11305109F4F9923A9F0F92F96E9BB279395F69558
S1130520879577956795B795F111F8CFFAF4BB0FD6
S113053011F460FF1BC06F5F7F4F8F4F9F4F16C03A
S1130540882311F096E911C0772321F09EE8872FC4
S1130550762F05C0662371F096E8862F70E060E080
S11305602AF09A95660F771F881FDAF7880F9695F9
S1130570879597F9089557FD9058440F551F59F0E2
S11305805F3F71F04795880F97FB991F61F09F3F7C
S113059079F087950895121613061406551FF2CFA5
S11305A04695F1DF08C0161617061806991FF1CFF5
S11305B086957105610508940895E894BB2766271C
S11305C07727CB0197F908950E94C302E8F09E377C
S11305D0E8F09639B8F49E3848F4672F782F8827C6
S11305E0985FF9CF86957795679593959539D0F36C
S11305F0B62FB1706B0F711D811D20F4879577950F
S1130600679593950C9408030C9423030C94DE02D1
S1130610882371F4772321F09850872B762F07C015
S1130620662311F499270DC09051862B70E060E089
S11306302AF09A95660F771F881FDAF7880F969528
S1130640879597F908959F3F31F0915020F487954D
S113065077956795B795880F911D9695879597F926
S11306600895A29FB001B39FC001A39F700D811D87
S11306701124911DB29F700D811D1124911D0895A7
S1130680AEE0B0E0E6E4F3E00C940F060D891E89B9
S11306908F89988D26E02C831A83098397FF02C0E3
S11306A080E090E801979E838D83AE01455E5F4FA5
S11306B0698D7A8DCE0101960E9470034D815E8111
S11306C057FD0AC02F813885421753070CF49A014D
S11306D0F801E20FF31F10822E96E4E00C942B062F
S11306E0ABE0B0E0E6E7F3E00C9401066C017B01BB
S11306F08A01FC0117821682838181FFCCC1CE015D
S113070001963C01F6019381F70193FD859193FFD6
S113071081917F01882309F4BAC1853239F493FDAC
S1130720859193FF81917F01853229F4B60190E090
S11307300E946705E7CF912C212C312CFFE1F315A2
S1130740D8F08B3279F038F4803279F08332A1F426
S1130750232D20611DC08D3261F0803369F4232D77
S1130760216016C0832D8260382EE32DE4603E2E76
S11307702AC0F32DF8601DC037FC2DC020ED280FD2
S11307802A3040F08E32B9F436FC81C1232D206426
S1130790322E19C036FE06C08AE0989E200D112420
S11307A0922E11C0EAE02E9E200D1124222EF32D4C
S11307B0F0623F2E08C08C3621F4832D8068382ED9
S11307C002C0883641F4F70193FD859193FF81912E
S11307D07F018111B3CF982F9F7D9554933028F4D6
S11307E00C5F1F4F9FE399830DC0833631F083372D
S11307F071F0833509F059C021C0F80180818983E3
S11308000E5F1F4F88248394912C530113C0280139
S1130810F2E04F0E511CF801A080B18036FE03C0F7
S1130820692D70E002C06FEF7FEFC5010E945C0587
S11308304C018201F32DFF773F2E16C0280122E0E0
S1130840420E511CF801A080B18036FE03C0692D10
S113085070E002C06FEF7FEFC5010E9451054C01AB
S1130860F32DF0683F2E820133FC1BC0822D90E0F3
S113087088169906B0F4B60180E290E00E946705FC
S11308802A94F4CFF50137FC859137FE81915F01FD
S1130890B60190E00E94670521102A9421E0821A93
S11308A091088114910471F7E8C0843611F08936F7
S11308B041F5F80137FE07C060817181828193811F
S11308C00C5F1F4F08C060817181072E000C880BDC
S11308D0990B0E5F1F4FF32DFF763F2E97FF09C034
S11308E090958095709561957F4F8F4F9F4FF068DD
S11308F03F2E2AE030E0A3010E94A305882E86182B
S113090045C0853731F4232D2F7EB22E2AE030E006
S113091025C0932D997FB92E8F36C1F018F48835F0
S113092079F0B5C0803719F0883721F0B0C0E92FCD
S1130930E061BE2EB4FE0DC0FB2DF460BF2E09C0D5
S113094034FE0AC0292F2660B22E06C028E030E00B
S113095005C020E130E002C020E132E0F801B7FE3A
S113096007C060817181828193810C5F1F4F06C033
S11309706081718180E090E00E5F1F4FA3010E94AF
S1130980A305882E8618FB2DFF773F2E36FE0DC05B
S1130990232D2E7FA22E891458F434FE0BC032FC72
S11309A009C0832D8E7EA82E05C0B82CA32C03C0AD
S11309B0B82C01C0B92CA4FE0FC0FE01E80DF11D36
S11309C08081803321F49A2D997EA92E09C0A2FE3C
S11309D006C0B394B39404C08A2D867809F0B39406
S11309E0A3FC11C0A0FE06C0B21488F4280C922CFB
S11309F09B180EC0B21460F4B60180E290E00E942D
S1130A006705B394F7CFB21418F42B1802C0982CCE
S1130A10212CA4FE10C0B60180E390E00E9467057B
S1130A20A2FE17C0A1FC03C088E790E002C088E5DD
S1130A3090E0B6010CC08A2D867859F0A1FE02C060
S1130A408BE201C080E2A7FC8DE2B60190E00E9437
S1130A506705891438F4B60180E390E00E946705C5
S1130A609A94F7CF8A94F301E80DF11D8081B601C1
S1130A7090E00E9467058110F5CF222009F442CE50
S1130A80B60180E290E00E9467052A94F6CFF60151
S1130A908681978102C08FEF9FEF2B96E2E10C9441
S1130AA01D06FC010590615070400110D8F7809537
S1130AB090958E0F9F1F0895FC0161507040019026
S1130AC00110D8F7809590958E0F9F1F08950F936E
S1130AD01F93CF93DF93FB01238121FD03C08FEF8D
S1130AE09FEF2CC022FF16C0468157812481358197
S1130AF04217530744F4A081B1819D012F5F3F4FFA
S1130B00318320838C93268137812F5F3F4F378336
S1130B10268314C08B01EC01FB010084F185E02DD8
S1130B200995892BE1F6D80116968D919C9117971A
S1130B30019617969C938E931697CE01DF91CF91D1
S1130B401F910F910895FA01AA27283051F12031FD
S1130B5081F1E8946F936E7F6E5F7F4F8F4F9F4F4D
S1130B60AF4FB1E03ED0B4E03CD0670F781F891F8F
S1130B709A1FA11D680F791F8A1F911DA11D6A0F5D
S1130B80711D811D911DA11D20D009F468943F9110
S1130B902AE0269F11243019305D3193DEF6CF010F
S1130BA00895462F4770405D4193B3E00FD0C9F7D5
S1130BB0F6CF462F4F70405D4A3318F0495D31FD42
S1130BC04052419302D0A9F7EACFB4E0A695979595
S1130BD0879577956795BA95C9F70097610571056B
S1130BE008959B01AC010A2E0694579547953795B5
S1130BF02795BA95C9F7620F731F841F951FA01D0F
S1130C0008952F923F924F925F926F927F928F92AC
S1130C109F92AF92BF92CF92DF92EF92FF920F9387
S1130C201F93CF93DF93CDB7DEB7CA1BDB0B0FB691
S1130C30F894DEBF0FBECDBF09942A88398848884E
S1130C405F846E847D848C849B84AA84B984C884E4
S1130C50DF80EE80FD800C811B81AA81B981CE0FDB
S1130C60D11D0FB6F894DEBF0FBECDBFED010895C0
S1070C70F894FFCF22
S1110C7454454D503A20252E32642043000092
S9030000FC
