S00B00005450342E7372656341
S11300000C9454000C9471000C9471000C947100C5
S11300100C9471000C9471000C9471000C94710098
S11300200C9471000C9481020C9471000C94710076
S11300300C9471000C9471000C9471000C94710078
S11300400C9471000C9471000C9471000C94710068
S11300500C9471000C9486000C9471000C94710043
S11300600C9471000C947100001F000000001F002C
S1130070001F101010101F00001F181818181F0060
S1130080001F1C1C1C1C1F00001F1E1E1E1E1F0008
S1130090001F1F1F1F1F1F0003070F1F0F07030051
S11300A0181C1E1F1E1C180011241FBECFEFD8E001
S11300B0DEBFCDBF11E0A0E0B1E0EEE2FEE002C0A1
S11300C005900D92AE30B107D9F721E0AEE0B1E072
S11300D001C01D92A431B207E1F70E943E020C94C4
S11300E015070C94000010927C00EAE7F0E0808190
S11300F08F6A80830895EAE7F0E0808180648083DA
S1130100089580910E0190910F0108951F920F920E
S11301100FB60F9211248F939F9380917800909142
S1130120790090930F0180930E019F918F910F900E
S11301300FBE0F901F901895982F907F9BB9589AD7
S11301405A9A2DE02A95F1F700005A9858989DE0A4
S11301509A95F1F7000020E1829FC00111248BB928
S1130160589A5A9A8DE08A95F1F700005A9858984F
S11301709DE09A95F1F700000895982F907F9BB920
S11301805A9AE9EFF0E03197F1F700C000005A986D
S1130190E9EFF0E03197F1F700C00000F0E18F9F44
S11301A0C00111248BB95A9A89EF90E00197F1F7B5
S11301B000C000005A98E9EFF0E03197F1F700C071
S11301C00000089581E00E94BD0008950F931F93DD
S11301D0CF93DF93009781F0662371F0EC016150B7
S11301E0062F10E00F5F1F4F080F191F89910E94FF
S11301F09C00C017D107D1F7DF91CF911F910F91C8
S11302000895623031F0633031F0613029F4805C5C
S113021003C08C5E01C08C5A80680E94BD000895A2
S1130220FF920F931F93CF93DF93660F660F660FB2
S11302306064EC016894FF24F3F8F60EFE01049167
S113024011E0160F862F0E94BD00802F0E949C0093
S11302502196612F1F11F2CFDF91CF911F910F9142
S1130260FF9008951F93CF93DF9385EA9EE0019753
S1130270F1F700C000001BB81BB88AB1806F8AB9BF
S11302808AB187608AB980E38BB95A9AE9EFF0E0C2
S11302903197F1F700C000005A98E9EFF0E0319788
S11302A0F1F700C000008BB95A9A89EF90E00197EA
S11302B0F1F700C000005A98E9EFF0E03197F1F748
S11302C000C0000080E28BB95A9A89EF90E0019750
S11302D0F1F700C000005A98E9EFF0E03197F1F728
S11302E000C0000088E20E94BD008CE00E94BD00B6
S11302F0C8E6D0E060E011E0160FCE010E941001C4
S11303002896612F1830B9F7DF91CF911F91089586
S11303100F931F93CF93DF93CDB7DEB72D970FB60F
S1130320F894DEBF0FBECDBF0E948100BC0180E007
S113033090E00E94C60223E23BED49EF5EE30E9497
S11303402C0320E030E040E251E40E942C030E94A0
S11303509702709311016093100120911001309164
S11303601101ADECBCEC0E940E048C0116950795AE
S11303701695079516950795409110015091110116
S11303809A010E940E049695879596958795969561
S113039087959C01220F331F880F991F880F991F7F
S11303A0880F991F820F931F481B590B55275F9382
S11303B04F93C80199279F938F9380E091E09F9377
S11303C08F931F928DE08F93CE0101969F938F930D
S11303D00E941D040E94E20060E080E00E9401018E
S11303E00FB6F894DEBF0FBECDBF0A3030F46BE019
S11303F0CE0101960E94E60005C06CE0CE01019694
S11304000E94E6002D960FB6F894DEBF0FBECDBF56
S1130410DF91CF911F910F9108950E948100BC013B
S113042080E090E00E94C60223E23BED49EF5EE3E8
S11304300E942C0320E030E040E251E40E942C03AF
S11304400E9499030E949702709311016093100116
S11304508091100190911101813F910510F0289A2B
S11304600AC080911001909111018A3A910510F40B
S1130470299A01C015B80E947E02089581E08093F4
S11304807E0083E084B90E9473000E9432010E94BE
S1130490E20060E080E00E9401010E9463020E9489
S11304A07B0078940E947502823021F40E948801B6
S11304B00E947B020E9478028130A1F70E940D0203
S11304C00E947E02EFCFE6EBF0E0808180628083C1
S11304D01092B000E1EBF0E0808183608083E0E77C
S11304E0F0E08081816080830895809112010895F5
S11304F0809113010895109212010895109213012E
S113050008951F920F920FB60F9211248F9380912A
S113051013018F5F80931301809112018F5F809389
S113052012018F910F900FBE0F901F9018950E948B
S11305300B0388F09F5798F0B92F9927B751B0F063
S1130540E1F0660F771F881F991F1AF0BA95C9F753
S113055014C0B13091F00E942503B1E008950C94C9
S11305602503672F782F8827B85F39F0B93FCCF37C
S1130570869577956795B395D9F73EF490958095D0
S1130580709561957F4F8F4F9F4F0895E89409C0F0
S113059097FB3EF490958095709561957F4F8F4FB2
S11305A09F4F9923A9F0F92F96E9BB279395F695C8
S11305B0879577956795B795F111F8CFFAF4BB0F46
S11305C011F460FF1BC06F5F7F4F8F4F9F4F16C0AA
S11305D0882311F096E911C0772321F09EE8872F34
S11305E0762F05C0662371F096E8862F70E060E0F0
S11305F02AF09A95660F771F881FDAF7880F969569
S1130600879597F9089557FD9058440F551F59F051
S11306105F3F71F04795880F97FB991F61F09F3FEB
S113062079F087950895121613061406551FF2CF14
S11306304695F1DF08C0161617061806991FF1CF64
S113064086957105610508940895E894BB2766278B
S11306507727CB0197F908950E943F030C94FD037B
S11306600E94EF0338F00E94F60320F0952311F066
S11306700C94BD030C94EC0311240C9426030E94E7
S1130680030370F3959FC1F3950F50E0551F629FCC
S1130690F001729FBB27F00DB11D639FAA27F00DD7
S11306A0B11DAA1F649F6627B00DA11D661F829FFE
S11306B02227B00DA11D621F739FB00DA11D621FE3
S11306C0839FA00D611D221F749F3327A00D611D00
S11306D0231F849F600D211D822F762F6A2F1124E2
S11306E09F5750409AF0F1F088234AF0EE0FFF1F15
S11306F0BB1F661F771F881F91505040A9F79E3F6C
S1130700510580F00C94BD030C9426035F3FE4F381
S1130710983ED4F3869577956795B795F795E795C1
S11307209F5FC1F7FE2B880F911D9695879597F9CA
S113073008950E940B03E8F09E37E8F09639B8F468
S11307409E3848F4672F782F8827985FF9CF8695CD
S11307507795679593959539D0F3B62FB1706B0F54
S1130760711D811D20F487957795679593950C9459
S1130770C3030C94DE030C94260397F99F6780E867
S113078070E060E00895882371F4772321F0985095
S1130790872B762F07C0662311F499270DC090513B
S11307A0862B70E060E02AF09A95660F771F881F09
S11307B0DAF7880F9695879597F908959F3F31F05A
S11307C0915020F4879577956795B795880F911D7B
S11307D09695879597F908959FEF80EC08950024E6
S11307E00A941616170618060906089500240A9492
S11307F012161306140605060895092E0394000C18
S113080011F4882352F0BB0F40F4BF2B11F460FFA6
S113081004C06F5F7F4F8F4F9F4F0895A29FB00119
S1130820B39FC001A39F700D811D1124911DB29F20
S1130830700D811D1124911D0895AEE0B0E0E3E236
S1130840F4E00C94EC060D891E898F89988D26E0BE
S11308502C831A83098397FF02C080E090E80197F4
S11308609E838D83AE01455E5F4F698D7A8DCE0187
S113087001960E944D044D815E8157FD0AC02F816F
S11308803885421753070CF49A01F801E20FF31F5D
S113089010822E96E4E00C940807ABE0B0E0E3E5A8
S11308A0F4E00C94DE066C017B018A01FC011782E2
S11308B01682838181FFCCC1CE0101963C01F601F1
S11308C09381F70193FD859193FF81917F018823A3
S11308D009F4BAC1853239F493FD859193FF81916E
S11308E07F01853229F4B60190E00E944406E7CFE7
S11308F0912C212C312CFFE1F315D8F08B3279F0B7
S113090038F4803279F08332A1F4232D20611DC0A4
S11309108D3261F0803369F4232D216016C0832D5C
S11309208260382EE32DE4603E2E2AC0F32DF86059
S11309301DC037FC2DC020ED280F2A3040F08E3228
S1130940B9F436FC81C1232D2064322E19C036FE41
S113095006C08AE0989E200D1124922E11C0EAE070
S11309602E9E200D1124222EF32DF0623F2E08C05E
S11309708C3621F4832D8068382E02C0883641F4E9
S1130980F70193FD859193FF81917F018111B3CF8D
S1130990982F9F7D9554933028F40C5F1F4F9FE34D
S11309A099830DC0833631F0833771F0833509F0B4
S11309B059C021C0F801808189830E5F1F4F8824AC
S11309C08394912C530113C02801F2E04F0E511C63
S11309D0F801A080B18036FE03C0692D70E002C02A
S11309E06FEF7FEFC5010E9439064C018201F32DA0
S11309F0FF773F2E16C0280122E0420E511CF80159
S1130A00A080B18036FE03C0692D70E002C06FEF94
S1130A107FEFC5010E942E064C01F32DF0683F2E96
S1130A20820133FC1BC0822D90E088169906B0F435
S1130A30B60180E290E00E9444062A94F4CFF501C6
S1130A4037FC859137FE81915F01B60190E00E94E9
S1130A50440621102A9421E0821A910881149104F9
S1130A6071F7E8C0843611F0893641F5F80137FE94
S1130A7007C060817181828193810C5F1F4F08C020
S1130A8060817181072E000C880B990B0E5F1F4F3C
S1130A90F32DFF763F2E97FF09C0909580957095B2
S1130AA061957F4F8F4F9F4FF0683F2E2AE030E0D3
S1130AB0A3010E948006882E861845C0853731F42C
S1130AC0232D2F7EB22E2AE030E025C0932D997F6E
S1130AD0B92E8F36C1F018F4883579F0B5C0803757
S1130AE019F0883721F0B0C0E92FE061BE2EB4FEC2
S1130AF00DC0FB2DF460BF2E09C034FE0AC0292F9F
S1130B002660B22E06C028E030E005C020E130E0C7
S1130B1002C020E132E0F801B7FE07C060817181B4
S1130B20828193810C5F1F4F06C06081718180E0D8
S1130B3090E00E5F1F4FA3010E948006882E861846
S1130B40FB2DFF773F2E36FE0DC0232D2E7FA22EC8
S1130B50891458F434FE0BC032FC09C0832D8E7EF8
S1130B60A82E05C0B82CA32C03C0B82C01C0B92CE6
S1130B70A4FE0FC0FE01E80DF11D8081803321F435
S1130B809A2D997EA92E09C0A2FE06C0B394B394EF
S1130B9004C08A2D867809F0B394A3FC11C0A0FE8A
S1130BA006C0B21488F4280C922C9B180EC0B21400
S1130BB060F4B60180E290E00E944406B394F7CF5B
S1130BC0B21418F42B1802C0982C212CA4FE10C0C7
S1130BD0B60180E390E00E944406A2FE17C0A1FC87
S1130BE003C088E790E002C088E590E0B6010CC03D
S1130BF08A2D867859F0A1FE02C08BE201C080E202
S1130C00A7FC8DE2B60190E00E944406891438F4F2
S1130C10B60180E390E00E9444069A94F7CF8A9448
S1130C20F301E80DF11D8081B60190E00E944406B5
S1130C308110F5CF222009F442CEB60180E290E083
S1130C400E9444062A94F6CFF6018681978102C059
S1130C508FEF9FEF2B96E2E10C94FA06FC010590CE
S1130C60615070400110D8F7809590958E0F9F1FAA
S1130C700895FC016150704001900110D8F78095EF
S1130C8090958E0F9F1F08950F931F93CF93DF931B
S1130C90FB01238121FD03C08FEF9FEF2CC022FFB6
S1130CA016C046815781248135814217530744F485
S1130CB0A081B1819D012F5F3F4F318320838C93AD
S1130CC0268137812F5F3F4F3783268314C08B01E2
S1130CD0EC01FB010084F185E02D0995892BE1F6F7
S1130CE0D80116968D919C911797019617969C930F
S1130CF08E931697CE01DF91CF911F910F91089596
S1130D00FA01AA27283051F1203181F1E8946F9338
S1130D106E7F6E5F7F4F8F4F9F4FAF4FB1E03ED0DE
S1130D20B4E03CD0670F781F891F9A1FA11D680F7C
S1130D30791F8A1F911DA11D6A0F711D811D911DAF
S1130D40A11D20D009F468943F912AE0269F112424
S1130D503019305D3193DEF6CF010895462F477088
S1130D60405D4193B3E00FD0C9F7F6CF462F4F70E3
S1130D70405D4A3318F0495D31FD4052419302D041
S1130D80A9F7EACFB4E0A6959795879577956795E7
S1130D90BA95C9F700976105710508959B01AC01E7
S1130DA00A2E06945795479537952795BA95C9F70E
S1130DB0620F731F841F951FA01D08952F923F92E9
S1130DC04F925F926F927F928F929F92AF92BF9257
S1130DD0CF92DF92EF92FF920F931F93CF93DF9303
S1130DE0CDB7DEB7CA1BDB0B0FB6F894DEBF0FBE60
S1130DF0CDBF09942A88398848885F846E847D84AD
S1130E008C849B84AA84B984C884DF80EE80FD80AE
S1130E100C811B81AA81B981CE0FD11D0FB6F89424
S1110E20DEBF0FBECDBFED010895F894FFCFE5
S1110E2E54454D503A2025642C256420430081
S9030000FC
